S00F00004455414C4C464F2E737265630E
S113000090C0AAC0A9C0A8C0A7C0A6C02AC167C181
S1130010A3C0A2C0A1C0A0C09FC09EC09DC09CC0E0
S11300209BC0808386898C8F9295989C9FA2A5A85B
S1130030ABAEB0B3B6B9BCBFC1C4C7C9CCCED1D3C3
S1130040D5D8DADCDEE0E2E4E6E8EAECEDEFF0F263
S1130050F3F5F6F7F8F9FAFBFCFCFDFEFEFFFFFFF3
S1130060FFFFFFFFFFFFFFFFFEFEFDFCFCFBFAF9B5
S1130070F8F7F6F5F3F2F0EFEDECEAE8E6E4E2E0A7
S1130080DEDCDAD8D5D3D1CECCC9C7C4C1BFBCB9A4
S1130090B6B3B0AEABA8A5A29F9C9895928F8C895D
S11300A08683807C797673706D6A6763605D5A5766
S11300B054514F4C494643403E3B383633312E2C45
S11300C02A272523211F1D1B1917151312100F0D85
S11300D00C0A0908070605040303020101000000D5
S11300E000000000000000000101020303040506F3
S11300F00708090A0C0D0F1012131517191B1D1FE1
S1130100212325272A2C2E313336383B3E404346C3
S1130110494C4F5154575A5D6063676A6D707376EA
S1130120797C11241FBECFE5D1E0DEBFCDBF10E046
S1130130A0E6B0E0E0E8F9E002C005900D92A43733
S1130140B107D9F720E0A4E7B0E001C01D92A038C0
S1130150B207E1F70FD312C453CFFC01908181E0C1
S1130160890F80830895FC0190818FEF890F80832C
S11301700895FC018091780090917900892B51F0C9
S1130180808182508083811110C010927900109276
S113019078000BC080818E5F80838E3F31F481E0D4
S11301A090E0909379008093780080810895FC0119
S11301B080818F5F808390E08E37910524F42FE750
S11301C02093660003C02EEF209366006CEF70E06E
S11301D012D38083809166000895FC0180818F5F33
S11301E0808390E08E37910524F421E0209365000C
S11301F003C02FE7209365006CEF70E0FCD280838E
S1130200809165000895FC0180818F5F808390E078
S11302108E37910524F421E02093640003C02EEF6F
S1130220209364006CEF70E0E6D2808380916400D8
S11302300895DC01EC9121E02E0F2C93F0E0EE5DAB
S1130240FF4F849108958091770091E0980F9093E7
S11302507700811103C02CD38093760080917600BF
S113026008951F920F920FB60F9211242F933F936C
S11302704F935F936F937F938F939F93AF93BF93AA
S1130280CF93DF93EF93FF93C7E6D0E0EC81FD813A
S1130290CE01099586BF2CB53DB5A9014095509571
S11302A08A819B814817590718F4841B950B02C057
S11302B0820F931F9BBD8ABDFF91EF91DF91CF9178
S11302C0BF91AF919F918F917F916F915F914F916A
S11302D03F912F910F900FBE0F901F9018951F9272
S11302E00F920FB60F9211242F933F934F935F9366
S11302F06F937F938F939F93AF93BF93CF93DF932A
S1130300EF93FF93C7E6D0E0EA85FB858DE690E0A6
S113031009958CBF2CB53DB5A901409550958885AC
S113032099854817590718F4841B950B02C0820F4E
S1130330931F99BD88BDFF91EF91DF91CF91BF913C
S1130340AF919F918F917F916F915F914F913F9169
S11303502F910F900FBE0F901F9018958436910522
S113036080F4862F90E0860F911D860F911D880FD3
S1130370991FFC01E959FF4F89E191E0958384833A
S11303800895883C910580F4862F90E0860F911D96
S1130390860F911D880F991FFC01E959FF4F8DEAC3
S11303A090E09583848308958C3221E0920780F451
S11303B0862F90E0860F911D860F911D880F991F3F
S11303C0FC01E959FF4F83EB90E095838483089502
S11303D0803921E0920780F4862F90E0860F911DEA
S11303E0860F911D880F991FFC01E959FF4F89EB76
S11303F090E09583848308958C3B22E0920780F4F7
S1130400862F90E0860F911D860F911D880F991FEE
S1130410FC01E959FF4F87ED90E0958384830895AB
S1130420803223E0920780F4862F90E0860F911D9E
S1130430860F911D880F991FFC01E959FF4F8DEE1E
S113044090E09583848308958438934080F4862FC4
S113045090E0860F911D860F911D880F991FFC0156
S1130460E959FF4F83E091E0958384830895862FB3
S113047090E0860F911D860F911D880F991FFC0136
S1130480E959FF4F83E291E09583848308958AB309
S11304908ABB17B886B1876086B9379A089597B131
S11304A0987F97B997B1982B97B9369A3699FECF1A
S11304B010927D0010927C0024B130E030937D00D6
S11304C020937C0095B120917C0030917D00392BE4
S11304D030937D0020937C00811128C080917A00A4
S11304E090917B0020917C0030917D004E97821783
S11304F0930768F480917A0090917B0020917C00AE
S113050030917D004E962817390708F432C1809146
S11305107C0090917D0090937B0080937A00809181
S11305207A0090917B0060E019DF0895813069F5CD
S113053080917E0090917F0020917C0030917D001D
S11305400A978217930768F480917E0090917F0048
S113055020917C0030917D000A962817390708F411
S113056008C180917C0090917D0090937F008093DE
S11305707E0080917E0090917F006AE070E027D138
S113058070936A00609369000895823041F5809108
S11305907A0090917B0020917C0030917D004E97F1
S11305A08217930768F480917A0090917B002091E0
S11305B07C0030917D004E962817390708F4D9C085
S11305C080917C0090917D0090937B0080937A00D1
S11305D080917A0090917B0061E0C0DE08958330C1
S11305E069F580917E0090917F0020917C0030918C
S11305F07D000A978217930768F480917E0090919A
S11306007F0020917C0030917D000A9628173907DD
S113061008F4AFC080917C0090917D0090937F009E
S113062080937E0080917E0090917F006AE070E06C
S1130630CED07093700060936F000895843009F0F9
S113064098C080917E0090917F0020917C00309131
S11306507D000A978217930768F480917E00909139
S11306607F0020917C0030917D000A96281739077D
S113067008F47FC080917C0090917D0090937F006E
S113068080937E0080917E0090917F00803991401C
S113069050F48091740090917500892B21F488B3F3
S11306A08C7F88BB089580917E0090917F0088356F
S11306B0924060F48091740090917500892B09F048
S11306C04BC088B38C7F88BBC09A089580917E000C
S11306D090917F008032934068F4809174009091EF
S11306E07500009761F588B38C7F88BB88B38360FD
S11306F088BB089580917E0090917F00811594407D
S113070038F08091740090917500009791F111C0B8
S11307108091740090917500009759F481E090E005
S1130720909375008093740088B38C7F88BBC19AC2
S11307300895019790937500809374000895209113
S11307407E0030917F002115344098F30DC08091D4
S1130750740090917500F3CF80917E0090917F009A
S113076080329340A0F3C6CF8091740090917500BD
S1130770E0CF0895F89487E087BB80E88ABBC0E5A2
S1130780C6BFCCBF93EA90BF96E09CB91FBC1EBC09
S113079086BD16BC81E083BF84E08EBD78DEC6BF13
S11307A0CCBF80E590E09BBD8ABD1DBC1CBC8CE326
S11307B090E099BD88BD789480E071DE81E06FDEC1
S11307C082E06DDE83E06BDE84E069DEF5CFAA1B98
S11307D0BB1B51E107C0AA1FBB1FA617B70710F028
S11307E0A61BB70B881F991F5A95A9F7809590955A
S11307F0BC01CD01089597FB072E16F4009406D092
S113080077FD08D0E4DF07FC05D03EF49095819590
S11308109F4F0895709561957F4F08958F929F9291
S1130820AF92BF92CF92DF92EF92FF92CF93DF937A
S1130830EC01688179818A819B816115710581054B
S1130840910521F464E279ED8BE597E02DE133EF36
S113085041E050E055D049015A0127EA31E440E033
S113086050E035D06B017C012CEE34EF4FEF5FEF9D
S1130870C501B4012CD0DC01CB018C0D9D1DAE1D36
S1130880BF1DB7FF03C00197A109B04888839983AE
S1130890AA83BB839F77DF91CF91FF90EF90DF9086
S11308A0CF90BF90AF909F908F900895B7DF089539
S11308B080E690E0B3DF0895A0E0B0E080936000AC
S11308C090936100A0936200B09363000895EE27B3
S11308D0FF27AA27BB2708C0A20FB31FE41FF51FD9
S11308E0220F331F441F551F96958795779567955B
S11308F098F37040A9F7009799F7BD01CF010895C7
S1130900052E97FB16F400940FD057FD05D014D094
S113091007FC02D046F408C05095409530952195C7
S11309203F4F4F4F5F4F0895909580957095619517
S11309307F4F8F4F9F4F0895A1E21A2EAA1BBB1B16
S1130940FD010DC0AA1FBB1FEE1FFF1FA217B30797
S1130950E407F50720F0A21BB30BE40BF50B661FAD
S1130960771F881F991F1A9469F760957095809571
S113097090959B01AC01BD01CF010895F894FFCF80
S11309800100000001017F000064001901000064FF
S10709900019010045
S9030000FC
