:1000000090C0AAC0A9C0A8C0A7C0A6C014C154C1AE
:10001000A3C0A2C0A1C0A0C09FC09EC09DC09CC0E4
:100020009BC0808386898C8F9295989C9FA2A5A85F
:10003000ABAEB0B3B6B9BCBFC1C4C7C9CCCED1D3C7
:10004000D5D8DADCDEE0E2E4E6E8EAECEDEFF0F267
:10005000F3F5F6F7F8F9FAFBFCFCFDFEFEFFFFFFF7
:10006000FFFFFFFFFFFFFFFFFEFEFDFCFCFBFAF9B9
:10007000F8F7F6F5F3F2F0EFEDECEAE8E6E4E2E0AB
:10008000DEDCDAD8D5D3D1CECCC9C7C4C1BFBCB9A8
:10009000B6B3B0AEABA8A5A29F9C9895928F8C8961
:1000A0008683807C797673706D6A6763605D5A576A
:1000B00054514F4C494643403E3B383633312E2C49
:1000C0002A272523211F1D1B1917151312100F0D89
:1000D0000C0A0908070605040303020101000000D9
:1000E00000000000000000000101020303040506F7
:1000F0000708090A0C0D0F1012131517191B1D1FE5
:10010000212325272A2C2E313336383B3E404346C7
:10011000494C4F5154575A5D6063676A6D707376EE
:10012000797C11241FBECFE5D1E0DEBFCDBF10E04A
:10013000A0E6B0E0EEE0F7E002C005900D92A03737
:10014000B107D9F720E0A0E7B0E001C01D92AA37BF
:10015000B207E1F7DAD1D9C253CFFC01908181E037
:10016000890F80830895FC0190818FEF890F808330
:100170000895FC018091720090917300892B51F0D9
:10018000808182508083811110C010927300109280
:1001900072000BC080818E5F80838E3F31F481E0DE
:1001A00090E0909373008093720080810895FC0129
:1001B00080818F5F808390E08E37910524F42FE754
:1001C0002093650003C02EEF209365006CEF70E074
:1001D000D9D18083809165000895FC0180818F5F73
:1001E000808390E08E37910524F421E02093640011
:1001F00003C02FE7209364006CEF70E0C3D18083CD
:10020000809164000895DC01EC9121E02E0F2C9385
:10021000F0E0EE5DFF4F849108958091710091E0D0
:10022000980F90937100811103C009D280937000E0
:100230008091700008951F920F920FB60F921124B3
:100240002F933F934F935F936F937F938F939F93DE
:10025000AF93BF93CF93DF93EF93FF93C6E6D0E0C6
:10026000EB81FC81CE01099586BF2DB58CB590E060
:10027000922BAC014095509529813A814217530742
:1002800020F4CA01821B930B02C0820F931F9BBDF7
:100290008ABDFF91EF91DF91CF91BF91AF919F9177
:1002A0008F917F916F915F914F913F912F910F901F
:1002B0000FBE0F901F9018951F920F920FB60F92BE
:1002C00011242F933F934F935F936F937F938F935B
:1002D0009F93AF93BF93CF93DF93EF93FF93C6E6C4
:1002E000D0E0E885F9858BE690E009958CBF2DB5C7
:1002F0008CB590E0922BAC01409550952E813F81BA
:100300004217530720F4CA01821B930B02C0820FCD
:10031000931F99BD88BDFF91EF91DF91CF91BF9160
:10032000AF919F918F917F916F915F914F913F918D
:100330002F910F900FBE0F901F901895843F914002
:1003400018F08EE190E0089581E090E00895843601
:10035000910530F483E091E0FB0194838383089559
:10036000883C910530F48DEA90E0FB01948383830F
:1003700008958C32F1E09F0730F483EB90E0FB01AD
:100380009483838308958039F1E09F0730F489EBEB
:1003900090E0FB019483838308958C3BF2E09F07F8
:1003A00030F487ED90E0FB019483838308958032DD
:1003B000F3E09F0730F48DEE90E0FB01948383839C
:1003C00008958438934030F487ED90E0FB019483E6
:1003D000838308958DE091E0FB01948383830895E6
:1003E0008AB38ABB17B886B1876086B9379A0895F1
:1003F000CF93DF93FC0197B1987F97B997B1962B74
:1004000097B9369A3699FECF1092770010927600FF
:1004100044B150E0509377004093760085B140910D
:10042000760050917700582B5093770040937600D8
:10043000369A60FF33C080917400909175002091CE
:100440007600309177004E978217930768F4809179
:1004500074009091750020917600309177004E964F
:100460002817390708F44EC08091760090917700E4
:100470009093750080937400809174009091750042
:100480006695262F30E0B901660F771F660F771F3C
:10049000620F731F6E0F7F1F5ADF34C08091780088
:1004A0009091790020917600309177000A97821719
:1004B000930760F480917800909179002091760004
:1004C000309177000A9628173907E0F0809176007E
:1004D0009091770090937900809378006695262F0D
:1004E00030E0E901CC0FDD1FCC0FDD1F2C0F3D1FCD
:1004F000EF01C20FD31F80917800909179001EDF29
:100500009A838983DF91CF910895F89484E087BB23
:1005100080E88ABB80E586BF8CBF83EA80BF86E027
:100520008CB91FBC1EBC81E083BF85E08EBD58DF47
:1005300080E590E09BBD8ABD1DBC1CBC8CE390E0B7
:1005400099BD88BD7894C0E06C2F86E690E050DFBE
:1005500082B782BFCF5FC430B9F7F5CFAA1BBB1BF0
:1005600051E107C0AA1FBB1FA617B70710F0A61BB3
:10057000B70B881F991F5A95A9F780959095BC01D4
:10058000CD01089597FB072E16F4009406D077FD51
:1005900008D0E4DF07FC05D03EF4909581959F4F8D
:1005A0000895709561957F4F08958F929F92AF92B5
:1005B000BF92CF92DF92EF92FF92CF93DF93EC0145
:1005C000688179818A819B81611571058105910519
:1005D00021F464E279ED8BE597E02DE133EF41E022
:1005E00050E055D049015A0127EA31E440E050E09B
:1005F00035D06B017C012CEE34EF4FEF5FEFC5017E
:10060000B4012CD0DC01CB018C0D9D1DAE1DBF1D96
:10061000B7FF03C00197A109B04888839983AA83D3
:10062000BB839F77DF91CF91FF90EF90DF90CF90CA
:10063000BF90AF909F908F900895B7DF089580E6A8
:1006400090E0B3DF0895A0E0B0E080936000909365
:100650006100A0936200B09363000895EE27FF2726
:10066000AA27BB2708C0A20FB31FE41FF51F220F44
:10067000331F441F551F969587957795679598F377
:100680007040A9F7009799F7BD01CF010895052E95
:1006900097FB16F400940FD057FD05D014D007FC3B
:1006A00002D046F408C050954095309521953F4FB3
:1006B0004F4F5F4F089590958095709561957F4F4E
:1006C0008F4F9F4F0895A1E21A2EAA1BBB1BFD015D
:1006D0000DC0AA1FBB1FEE1FFF1FA217B307E40721
:1006E000F50720F0A21BB30BE40BF50B661F771F79
:1006F000881F991F1A9469F7609570958095909559
:0E0700009B01AC01BD01CF010895F894FFCF1D
:10070E0001000000017F006400030100640003018A
:00000001FF
