S01200004C464F286E6F50574D292E737265630F
S113000096C0B0C0AFC0AEC0ADC0ACC0ABC0AAC09B
S1130010A9C0A8C041C1A6C0A5C0A4C0A3C057C15F
S11300205DC163C169C16FC175C17BC181C1808379
S113003086898C8F9295989C9FA2A5A8ABAEB0B3ED
S1130040B6B9BCBFC1C4C7C9CCCED1D3D5D8DADC0C
S1130050DEE0E2E4E6E8EAECEDEFF0F2F3F5F6F7E1
S1130060F8F9FAFBFCFCFDFEFEFFFFFFFFFFFFFFBC
S1130070FFFFFFFFFEFEFDFCFCFBFAF9F8F7F6F5C7
S1130080F3F2F0EFEDECEAE8E6E4E2E0DEDCDAD805
S1130090D5D3D1CECCC9C7C4C1BFBCB9B6B3B0AE39
S11300A0ABA8A5A29F9C9895928F8C898683807C0F
S11300B0797673706D6A6763605D5A5754514F4C1B
S11300C0494643403E3B383633312E2C2A272523DC
S11300D0211F1D1B1917151312100F0D0C0A0908E7
S11300E007060504030302010100000000000000EC
S11300F00000000001010203030405060708090AC1
S11301000C0D0F1012131517191B1D1F2123252762
S11301102A2C2E313336383B3E404346494C4F510E
S113012054575A5D6063676A6D707376797C1124E5
S11301301FBECFE5D1E0DEBFCDBF10E0A0E6B0E04A
S1130140E8E1F7E002C005900D92AC36B107D9F7AB
S113015020E0ACE6B0E001C01D92A937B207E1F798
S11301606DD1D8C24DCFFC01908181E0890F80838D
S11301700895FC0190818FEF890F80830895FC011D
S113018080916E0090916F00892B51F08081825094
S11301908083811110C010926F0010926E000BC00A
S11301A080818E5F80838E3F31F481E090E0909374
S11301B06F0080936E0080810895FC0180818F5FC1
S11301C0808390E08E37910524F42FE72093660016
S11301D003C02EEF209366006CEF70E0D8D18083CB
S11301E0809166000895FC0180818F5F808390E098
S11301F08E37910524F421E02093650003C02FE796
S1130200209365006CEF70E0C2D18083809165001B
S11302100895FC0180818F5F808390E08E37910583
S113022024F421E02093640003C02EEF20936400A3
S11302306CEF70E0ACD18083809164000895DC01A0
S1130240EC9121E02E0F2C93F0E0E25DFF4F8491BE
S1130250089580916D0091E0980F90936D00811145
S113026003C0F2D180936C0080916C000895CF9309
S1130270DF93EC01E0917700F091780086E790E05D
S11302800995209731F092E09A95F1F700C02197F3
S1130290D1F7DF91CF9108951F920F920FB60F926D
S11302A011242F933F934F935F936F937F938F9377
S11302B09F93AF93BF93EF93FF93E0916700F09107
S11302C06800E830F105D0F5E15FFF4F09948FE154
S11302D091E0909378008093770030C083EB90E0B6
S11302E0909378008093770029C089EB90E09093F5
S11302F078008093770022C08FEB90E09093780091
S1130300809377001BC08DED90E0909378008093EC
S1130310770014C089E291E090937800809377008D
S11303200DC083EF90E0909378008093770006C02F
S113033089E091E0909378008093770069B580918B
S1130340690090916A0093DF89BDFF91EF91BF919D
S1130350AF919F918F917F916F915F914F913F9159
S11303602F910F900FBE0F901F90189587B387BBE6
S113037087B1836087B986B1876086B9379A089553
S1130380843F21E0920710F40A960895829592958D
S1130390907F9827807F982784589C4108958436BD
S11303A0910528F410926800109267000895883C23
S11303B0910538F481E090E09093680080936700A1
S11303C008958C3221E0920738F482E090E0909313
S11303D06800809367000895803921E0920738F41B
S11303E083E090E0909368008093670008958C3BCD
S11303F022E0920738F484E090E0909368008093C0
S113040067000895803223E0920738F486E090E094
S1130410909368008093670008958438934038F47B
S113042087E090E09093680080936700089585E0EA
S113043090E090936800809367000895F89481E0B9
S113044087BB88BB90E599BD93EA9ABD90E199BFBB
S113045090E896BD16BC83BF89DF7894C1E087B16C
S11304608C2787B9389B41C0369A3699FECF1092B3
S113047073001092720084B190E0909373008093A3
S1130480720025B18091720090917300922B909329
S11304907300809372008091740090917500209194
S11304A07200309173000A978217930760F4809169
S11304B074009091750020917200309173000A9637
S11304C02817390760F2809172009091730090931D
S11304D0750080937400809174009091750050DFD2
S11304E090936A0080936900BACF369A3699FECF0A
S11304F0109273001092720084B190E09093730094
S11305008093720025B18091720090917300922BB8
S113051090937300809372008091700090917100A9
S113052020917200309173004E978217930768F4FC
S1130530809170009091710020917200309173004D
S11305404E962817390708F48ACF8091720090914B
S1130550730090937100809370008091700090916B
S113056071001DDF7CCFAA1BBB1B51E107C0AA1F72
S1130570BB1FA617B70710F0A61BB70B881F991F40
S11305805A95A9F780959095BC01CD01089597FBE4
S1130590072E16F4009406D077FD08D0E4DF07FC9C
S11305A005D03EF4909581959F4F0895709561957F
S11305B07F4F08958F929F92AF92BF92CF92DF9216
S11305C0EF92FF92CF93DF93EC01688179818A8166
S11305D09B81611571058105910521F464E279ED32
S11305E08BE597E02DE133EF41E050E055D0490130
S11305F05A0127EA31E440E050E035D06B017C0138
S11306002CEE34EF4FEF5FEFC501B4012CD0DC01C9
S1130610CB018C0D9D1DAE1DBF1DB7FF03C00197FF
S1130620A109B04888839983AA83BB839F77DF910C
S1130630CF91FF90EF90DF90CF90BF90AF909F90BD
S11306408F900895B7DF089580E690E0B3DF0895B2
S1130650A0E0B0E08093600090936100A0936200FA
S1130660B09363000895EE27FF27AA27BB2708C08D
S1130670A20FB31FE41FF51F220F331F441F551F82
S1130680969587957795679598F37040A9F70097A5
S113069099F7BD01CF010895052E97FB16F4009438
S11306A00FD057FD05D014D007FC02D046F408C083
S11306B050954095309521953F4F4F4F5F4F08958A
S11306C090958095709561957F4F8F4F9F4F0895BA
S11306D0A1E21A2EAA1BBB1BFD010DC0AA1FBB1F42
S11306E0EE1FFF1FA217B307E407F50720F0A21BB4
S11306F0B30BE40BF50B661F771F881F991F1A9421
S113070069F760957095809590959B01AC01BD014A
S10B0710CF010895F894FFCF16
S10F07180100000001017F0400A00000AB
S9030000FC
