:1000000096C0B0C0AFC0AEC0ADC0ACC0ABC0AAC09F
:10001000A9C0A8C07BC1A6C0A5C0A4C0A3C0AAC1D6
:10002000B0C1B6C1BCC1C2C1C8C1CEC1D4C1808338
:1000300086898C8F9295989C9FA2A5A8ABAEB0B3F1
:10004000B6B9BCBFC1C4C7C9CCCED1D3D5D8DADC10
:10005000DEE0E2E4E6E8EAECEDEFF0F2F3F5F6F7E5
:10006000F8F9FAFBFCFCFDFEFEFFFFFFFFFFFFFFC0
:10007000FFFFFFFFFEFEFDFCFCFBFAF9F8F7F6F5CB
:10008000F3F2F0EFEDECEAE8E6E4E2E0DEDCDAD809
:10009000D5D3D1CECCC9C7C4C1BFBCB9B6B3B0AE3D
:1000A000ABA8A5A29F9C9895928F8C898683807C13
:1000B000797673706D6A6763605D5A5754514F4C1F
:1000C000494643403E3B383633312E2C2A272523E0
:1000D000211F1D1B1917151312100F0D0C0A0908EB
:1000E00007060504030302010100000000000000F0
:1000F0000000000001010203030405060708090AC5
:100100000C0D0F1012131517191B1D1F2123252766
:100110002A2C2E313336383B3E404346494C4F5112
:1001200054575A5D6063676A6D707376797C1124E9
:100130001FBECFE5D1E0DEBFCDBF10E0A0E6B0E04E
:10014000E8EEF7E002C005900D92AE36B107D9F7A0
:1001500020E0AEE6B0E001C01D92AB37B207E1F798
:10016000D5D140C34DCF009731F022E02A95F1F769
:1001700000C00197D1F70895CF93DF93EC018881F8
:100180008F5F888380916B0090916C00ECDF888199
:10019000DF91CF910895CF93DF93EC018881815057
:1001A000888380916B0090916C00DDDF8881DF9106
:1001B000CF910895CF93DF93EC01809170009091DF
:1001C0007100892B51F0888182508883811110C081
:1001D00010927100109270000BC088818E5F88832E
:1001E0008E3F31F481E090E0909371008093700035
:1001F00080916B0090916C00B6DF8881DF91CF9188
:100200000895FC0180818F5F808390E08E37910597
:1002100024F42FE72093660003C02EEF209366009E
:100220006CEF70E01CD2808380916B0090916C0029
:100230009ADF809166000895FC0180818F5F808342
:1002400090E08E37910524F421E02093650003C0EF
:100250002FE7209365006CEF70E001D280838091DE
:100260006B0090916C007FDF809165000895FC0128
:1002700080818F5F808390E08E37910524F421E0A8
:100280002093640003C02EEF209364006CEF70E0B5
:10029000E6D1808380916B0090916C0064DF809147
:1002A0006400089539D2992790936F0080936E006F
:1002B00080916B0090916C0056DF80916E000895E4
:1002C000CF93DC01EC9121E02E0F2C93F0E0E25D66
:1002D000FF4FE491209167003091680060916700C2
:1002E00070916800660F771F80E091E0A4D1C0E8AC
:1002F000C61B8E2F90E0B9019ED1C60F80916B0076
:1003000090916C0030DF8C2FCF9108951F920F9247
:100310000FB60F9211242F933F934F935F936F93D8
:100320007F938F939F93AF93BF93EF93FF938091AE
:100330007800811115C08091670090916800019745
:1003400090936800809367008091670090916800A7
:10035000892B31F48AE090E09093680080936700E5
:10036000E0916900F0916A00E830F105D0F5E15FB5
:10037000FF4F099480E691E090937A008093790092
:1003800030C08CEB90E090937A008093790029C084
:100390008BEC90E090937A008093790022C08AEDF4
:1003A00090E090937A00809379001BC081E091E007
:1003B00090937A008093790014C082E591E0909345
:1003C0007A00809379000DC08CE191E090937A00DF
:1003D0008093790006C087E391E090937A00809340
:1003E0007900E0917900F0917A0088E790E0099532
:1003F000382FE0916700F09168006091670070917C
:100400006800660F771F80E091E015D120E8261B79
:10041000832F90E0BF010FD1620F69BDFF91EF9173
:10042000BF91AF919F918F917F916F915F914F910C
:100430003F912F910F900FBE0F901F901895BB9872
:1004400087B1836087B986B1876086B9379A089586
:10045000843F21E0920710F40A96089582959295C0
:10046000907F9827807F982784589C4108958436F0
:10047000910528F410926A00109269000895883C52
:10048000910538F481E090E090936A0080936900D0
:1004900008958C3221E0920738F482E090E0909346
:1004A0006A00809369000895803921E0920738F44A
:1004B00083E090E090936A008093690008958C3BFC
:1004C00022E0920738F484E090E090936A008093F1
:1004D00069000895803223E0920738F486E090E0C6
:1004E00090936A008093690008958438934038F4AB
:1004F00087E090E090936A0080936900089585E01A
:1005000090E090936A00809369000895F89481E0E8
:1005100087BB88BB90E599BD93EA9ABD90E199BFEE
:1005200090E896BD16BC83BF8ADF7894C1E087B19E
:100530008C2787B9389B41C0369A3699FECF1092E6
:1005400075001092740084B190E0909375008093D0
:10055000740025B18091740090917500922B909356
:1005600075008093740080917600909177002091BF
:100570007400309175000A978217930760F4809198
:1005800076009091770020917400309175000A9662
:100590002817390760F2809174009091750090934C
:1005A000770080937600809176009091770050DFFD
:1005B00090936C0080936B00BACF369A3699FECF39
:1005C000109275001092740084B190E090937500C1
:1005D0008093740025B18091740090917500922BE6
:1005E00090937500809374008091720090917300D5
:1005F00020917400309175004E978217930768F42C
:100600008091720090917300209174003091750078
:100610004E962817390708F48ACF8091740090917C
:100620007500909373008093720080917200909196
:1006300073001DDF7CCFAA1BBB1B51E107C0AA1FA3
:10064000BB1FA617B70710F0A61BB70B881F991F73
:100650005A95A9F780959095BC01CD01089597FB17
:10066000072E16F4009406D077FD08D0E4DF07FCCF
:1006700005D03EF4909581959F4F089570956195B2
:100680007F4F08958F929F92AF92BF92CF92DF9249
:10069000EF92FF92CF93DF93EC01688179818A8199
:1006A0009B81611571058105910521F464E279ED65
:1006B0008BE597E02DE133EF41E050E055D0490163
:1006C0005A0127EA31E440E050E035D06B017C016B
:1006D0002CEE34EF4FEF5FEFC501B4012CD0DC01FD
:1006E000CB018C0D9D1DAE1DBF1DB7FF03C0019733
:1006F000A109B04888839983AA83BB839F77DF9140
:10070000CF91FF90EF90DF90CF90BF90AF909F90F0
:100710008F900895B7DF089580E690E0B3DF0895E5
:10072000A0E0B0E08093600090936100A09362002D
:10073000B09363000895EE27FF27AA27BB2708C0C0
:10074000A20FB31FE41FF51F220F331F441F551FB5
:10075000969587957795679598F37040A9F70097D8
:1007600099F7BD01CF010895052E97FB16F400946B
:100770000FD057FD05D014D007FC02D046F408C0B6
:1007800050954095309521953F4F4F4F5F4F0895BD
:1007900090958095709561957F4F8F4F9F4F0895ED
:1007A000A1E21A2EAA1BBB1BFD010DC0AA1FBB1F75
:1007B000EE1FFF1FA217B307E407F50720F0A21BE7
:1007C000B30BE40BF50B661F771F881F991F1A9454
:1007D00069F760957095809590959B01AC01BD017E
:0807E000CF010895F894FFCF4A
:0E07E8000100000001017FFF000400A00000DE
:00000001FF
